:040000001AEF0AF0F9
:101000000000010E266E2050D8B409EF08F00BEF57
:1010100008F01BEF08F02050D96EDA6ADF30E832B2
:10102000E832070B216E070E216419EF08F01BEF61
:1010300008F072EF08F0000E266E92EF08F02050D4
:10104000D96EDA6ADF30E832E832070B216E010E22
:10105000226E212A2EEF08F0D8902236212E2CEF76
:1010600008F02250FF0A236E2050D96EDA6ADF5052
:10107000070B020DF350150FD96EDA6ADECF24F09C
:10108000DDCF25F024C0D9FF25C0DAFF2350DF16BD
:1010900092EF08F02050D96EDA6ADF30E832E83299
:1010A000070B216E010E226E212A59EF08F0D8900D
:1010B0002236212E57EF08F02050D96EDA6ADF5021
:1010C000070B020DF350150FD96EDA6ADECF23F04D
:1010D000DDCF24F023C0D9FF24C0DAFF2250DF1275
:1010E00092EF08F02050D96EDA6ADFBC7AEF08F090
:1010F0007DEF08F0010E7EEF08F0000E216E226AEF
:101100002250000AD8B487EF08F01BEF08F02150F6
:10111000000AD8B41FEF08F0010AD8B44AEF08F06B
:101120001BEF08F026501200010E276E2050D8B495
:101130009CEF08F09EEF08F0AEEF08F02050D96E5B
:10114000DA6ADF30E832E832070B226E070E2264DB
:10115000ACEF08F0AEEF08F005EF09F0000E276ED7
:101160001AEF09F02050D96EDA6ADF30E832E8323F
:10117000070B226E010E236E222AC1EF08F0D890D1
:101180002336222EBFEF08F02350FF0A246E205092
:10119000D96EDA6ADF50070B020DF3500B0FD96ED0
:1011A000DA6ADECF25F0DDCF26F025C0D9FF26C0D4
:1011B000DAFF2450DF161AEF09F02050D96EDA6AF0
:1011C000DF30E832E832070B226E010E236E222A4E
:1011D000ECEF08F0D8902336222EEAEF08F02050EA
:1011E000D96EDA6ADF50070B020DF3500B0FD96E80
:1011F000DA6ADECF24F0DDCF25F024C0D9FF25C088
:10120000DAFF2350DF121AEF09F02150226E236A11
:101210002350000AD8B40FEF09F0AEEF08F02250C7
:10122000000AD8B4B2EF08F0010AD8B4DDEF08F034
:10123000AEEF08F0275012002850D8A422EF09F092
:1012400024EF09F028EF09F0000E2A6E53EF09F0A1
:1012500033C02BF02850D96EDA6ADF500F0B296E9D
:101260002B502918F80B29182B6E2850D96EDA6AE2
:10127000DF38070B296E2946294629462B502918A5
:10128000C70B29182B6E2B9C2850D96EDA6ADFAE5B
:1012900002D02B8E01D02B9E2B0E206E010E216EC4
:1012A00094EC08F02A6E2A5012002850D8A45BEF64
:1012B00009F05DEF09F061EF09F0000E2A6E8CEF86
:1012C00009F032C02BF02850D96EDA6ADF500F0BCC
:1012D000296E2B502918F80B29182B6E2850D96E1F
:1012E000DA6ADF38070B296E2946294629462B5032
:1012F0002918C70B29182B6E2B9C2850D96EDA6A37
:10130000DFAE02D02B8E01D02B9E2B0E206E000E56
:10131000216E94EC08F02A6E2A5012002B50D8A4AB
:1013200094EF09F096EF09F09AEF09F0000E2D6E98
:10133000C3EF09F034C02EF02B50D96EDA6ADF50BB
:101340000F0B2C6E2E502C18F80B2C182E6E2B50C9
:10135000D96EDA6ADF38070B2C6E2C462C462C46E9
:101360002E502C18C70B2C182E6E2E9C2B50D96E7D
:10137000DA6ADFAE02D02E8E01D02E9E2E0E286E9F
:10138000C5EC09F02D6E2D5012002850D8B4CBEFCB
:1013900009F0CDEF09F0DDEF09F02850D96EDA6AD7
:1013A000DF30E832E832070B296E070E2964DBEFE5
:1013B00009F0DDEF09F0E1EF09F0000E2A6EF2EF1F
:1013C00009F028C020F001EC08F02A6E28C020F0B7
:1013D0002850D96EDA6A000EDFBE010E216E94EC41
:1013E00008F02A6E2A50120045EC0AF01F0E286EF3
:1013F0001CEC09F0396E330E306EBB0E2F6EE00E12
:10140000E82EFED72F2EFCD7302EFAD71F0E286ECF
:1014100055EC09F0396E330E306EBB0E2F6EE00EB8
:10142000E82EFED72F2EFCD7302EFAD7F6EF09F094
:1014300000EF00F06A0EF66E140EF76E000EF86EF6
:1014400000EE01F010EE1FF00900F5CFEEFFE550C1
:10145000E150FAE100EE31F0080EEE6AE806FDE137
:10146000000EF86E0001F4EF09F0800F810F820F7B
:10147000830F840F890F8A0F8B0F8C0F8D0F920FA4
:09148000930F940F950F960F02D3
:0C148A001F0E2B6E8EEC09F0396E120064
:020000040020DA
:08000000FFFFFFFFFFFFFFFF00
:020000040030CA
:0E000000FF02091EFF8181FF0FC00FE00F40BD
:00000001FF
